:030000000204BE39
:0C04BE00787FE4F6D8FD75811902050571
:10001E003F065B4F666D7D077F6FBF86DBCFE6EDDC
:10002E00FD87FFEF0FFF077406AA05F0059C04FC81
:10003E00047003F403BC035602F802CE027E0238AB
:10004E0001FA01DE01AA017C01660140011C00FEDD
:10005E000001005000580063006900750084009490
:10006E00009D00AF00C400D000EA0108012701394D
:10007E00015F018A01A201D70210024D0A020C0291
:10008E0000010C0C00010C020D020C020A08090200
:10009E000A020001090C0604080A00010504000109
:1000AE00050406040002080209020A0408040902F3
:1000BE00000109010A0109020802070408040001EF
:1000CE00080A00020C0200010C040D0400010F02CC
:1000DE0000010F0200010F040C040D0200010D01BE
:1000EE000F010D020C020A040C0400010C0A00019F
:1000FE0005020001050206020802000108020902BB
:10010E000A04080409020A020F040D020C0200017F
:10011E000C080A040C0400010A0200010A02000184
:10012E000A0209020A02090208020001090200017C
:10013E000902000109020A02090408020702070265
:10014E000001070200010702000107020001070279
:10015E000802090208020001080A00010C020D0241
:10016E000F0200010F0210020F040D020C0200011B
:10017E000C060D020C020A040C0400010A02000116
:10018E000A0200010A0200010A0409020802000123
:10019E00090200010902000109020A02090408020B
:0B01AE0007020001070200010702FF2A
:10062200011200010C00011300010900010801027E
:100632000A0000021400000116FC011718020D0046
:080642000102100000010F008D
:040661007F327E0066
:0B066500EF1FAC0670011E4C70F62267
:10064B00EF1FAA0670011E4A600BE4FDEDC3946E0A
:05065B0050EE0D80F7D8
:010660002277
:10054A00E51275F00A8490001E93F580C2A0120687
:10055A0061D2A0E51275F00A84E5F090002893F5BF
:10056A0080C2A1120661D2A1E50C75F00A8490003E
:10057A001E93F580C2A2120661D2A2E50C75F00A9A
:10058A0084E5F093F580C2A3120661D2A3E509932C
:0A059A00F580C2A4120661D2A4226B
:1002FB00E4F518F519758911758CFC758A18758DCF
:10030B003C758BB0D2A9D2ABD2AF12054A2090600C
:10031B007F0A7E0012064B20905320900512054A4F
:10032B0080F8E4F518F51912054A3090110519E516
:10033B001970020518C39496E518940040E9E51965
:10034B0064964518701575122DF50CE509C39404C8
:10035B005004050980157509018010E509B40405E1
:10036B0075120A8003751205E4F50CD28E3090FDE0
:10037B002091467F0A7E0012064B20913920910571
:10038B0012054A80F8E4F518F51912054A30911157
:10039B000519E51970020518C39496E518940040E9
:1003AB00E9E519649645187004D28C8009C28CD289
:1003BB00A7E4F514F5153091FD309203020315C235
:1003CB008CD2A7E4F514F515F512F50CC28EF509D0
:0303DB0002031505
:03000B000201B936
:1001B900C0E0C0F0C083C082C0D075D000C000C00C
:1001C90001C002C003C004C005C006C00785168C63
:1001D90085178A748A2515F58274003514F583E428
:1001E900936002B2A7C3E50B950EE50A950D500B76
:1001F900050BE50B7002050A0202E0750A00750B92
:100209000074022515F515E43514F514FE748A25D4
:1002190015F58274003EF583E493B4FF0A75140062
:10022900751500C28CD2A7748A2515F5827400351C
:1002390014F583E49325E02432F582E43400F58350
:10024900E493FE740193FBE4C39BFFE49EFE7401F7
:100259009400FDE49400FCE4FB7A01F9F81205A48A
:100269008F16748A2515F58274003514F583E49385
:1002790025E02432F582E43400F583E493FE740129
:1002890093FBE4C39BFFE49EFE74019400FDE49498
:1002990000FCE4FB7A01F9F81205A4AF038F177487
:1002A9008A2515F58274003514F583E49325E02435
:1002B9005EF582E43400F583E493FC740193FD74E4
:1002C9008B2515F58274003514F583E493FF7E00C0
:1002D9001203DE8E0D8F0ED007D006D005D004D0C4
:1002E90003D002D001D000D0D0D082D083D0F0D0BA
:0202F900E032F1
:03001B000205E8F3
:1005E800C0E0C0D0E513C3941450040513802075EF
:1005F8001300E50CD394004004150C8012E512D3C7
:10060800940040071512750C3B8004C28ED28C757D
:0A0618008D3C758BB0D0D0D0E032DD
:1004CA000202FBE493A3F8E493A34003F68001F24B
:1004DA0008DFF48029E493A3F85407240CC8C33333
:1004EA00C4540F4420C8834004F456800146F6DF02
:1004FA00E4800B0102040810204080900622E47E6A
:10050A00019360BCA3FF543F30E509541FFEE493F6
:10051A00A360010ECF54C025E060A840B8E493A3BD
:10052A00FAE493A3F8E493A3C8C582C8CAC583CAE8
:10053A00F0A3C8C582C8CAC583CADFE9DEE780BEA0
:01064A0000AF
:1003DE00EF8DF0A4A8F0CF8CF0A428CE8DF0A42E33
:0203EE00FE22ED
:1005A400C2D5E830E70FB2D5E4C39BFBE49AFAE482
:1005B40099F9E498F8EC30E717B2D51205DA120489
:1005C4002CE4C39BFBE49AFAE499F9E498F88003D9
:1005D40012042C30D50DE4C39FFFE49EFEE49DFD80
:0405E400E49CFC2275
:1003F00075F008758200EF2FFFEE33FECD33CDCCC4
:1004000033CCC58233C5829BED9AEC99E582984046
:100410000CF582EE9BFEED9AFDEC99FC0FD5F0D623
:10042000E4CEFBE4CDFAE4CCF9A88222B800C1B94D
:100430000059BA002DEC8BF084CFCECDFCE5F0CB8B
:10044000F97818EF2FFFEE33FEED33FDEC33FCEBC4
:1004500033FB10D703994004EB99FB0FD8E5E4F97F
:10046000FA227818EF2FFFEE33FEED33FDEC33FC6C
:10047000C933C910D7059BE99A4007EC9BFCE99A60
:10048000F90FD8E0E4C9FAE4CCFB2275F010EF2FA5
:10049000FFEE33FEED33FDCC33CCC833C810D707A5
:1004A0009BEC9AE899400AED9BFDEC9AFCE899F8E0
:0E04B0000FD5F0DAE4CDFBE4CCFAE4C8F92273
:00000001FF
